{
  "_format": "hh-sol-artifact-1",
  "contractName": "WavePortal",
  "sourceName": "contracts/WavePortal.sol",
  "abi": [
    {
      "inputs": [],
      "stateMutability": "nonpayable",
      "type": "constructor"
    },
    {
      "inputs": [],
      "name": "getTotalWaves",
      "outputs": [
        {
          "internalType": "uint256",
          "name": "",
          "type": "uint256"
        }
      ],
      "stateMutability": "view",
      "type": "function"
    },
    {
      "inputs": [],
      "name": "wave",
      "outputs": [],
      "stateMutability": "nonpayable",
      "type": "function"
    }
  ],
  "bytecode": "0x608060405234801561001057600080fd5b506100596040518060400160405280602081526020017f6865796f2c204920616d206120736d61727420636f6e74726163746f722e2e2e81525061005e60201b61012b1760201c565b6101e1565b6100fa81604051602401610072919061015f565b6040516020818303038152906040527f41304fac000000000000000000000000000000000000000000000000000000007bffffffffffffffffffffffffffffffffffffffffffffffffffffffff19166020820180517bffffffffffffffffffffffffffffffffffffffffffffffffffffffff83818316178352505050506100fd60201b60201c565b50565b60008151905060006a636f6e736f6c652e6c6f679050602083016000808483855afa5050505050565b600061013182610181565b61013b818561018c565b935061014b81856020860161019d565b610154816101d0565b840191505092915050565b600060208201905081810360008301526101798184610126565b905092915050565b600081519050919050565b600082825260208201905092915050565b60005b838110156101bb5780820151818401526020810190506101a0565b838111156101ca576000848401525b50505050565b6000601f19601f8301169050919050565b610591806101f06000396000f3fe608060405234801561001057600080fd5b50600436106100365760003560e01c80636fe15b441461003b5780639a2cdc0814610045575b600080fd5b610043610063565b005b61004d6100fd565b60405161005a91906103fe565b60405180910390f35b60016000808282546100759190610435565b92505081905550600160003373ffffffffffffffffffffffffffffffffffffffff1673ffffffffffffffffffffffffffffffffffffffff168152602001908152602001600020506100fb6040518060400160405280601481526020017f2573206a7573742064726f707065642073756d21000000000000000000000000815250336101c4565b565b600061012360405180606001604052806021815260200161053b60219139600054610260565b600054905090565b6101c18160405160240161013f919061037c565b6040516020818303038152906040527f41304fac000000000000000000000000000000000000000000000000000000007bffffffffffffffffffffffffffffffffffffffffffffffffffffffff19166020820180517bffffffffffffffffffffffffffffffffffffffffffffffffffffffff83818316178352505050506102fc565b50565b61025c82826040516024016101da92919061039e565b6040516020818303038152906040527f319af333000000000000000000000000000000000000000000000000000000007bffffffffffffffffffffffffffffffffffffffffffffffffffffffff19166020820180517bffffffffffffffffffffffffffffffffffffffffffffffffffffffff83818316178352505050506102fc565b5050565b6102f882826040516024016102769291906103ce565b6040516020818303038152906040527f9710a9d0000000000000000000000000000000000000000000000000000000007bffffffffffffffffffffffffffffffffffffffffffffffffffffffff19166020820180517bffffffffffffffffffffffffffffffffffffffffffffffffffffffff83818316178352505050506102fc565b5050565b60008151905060006a636f6e736f6c652e6c6f679050602083016000808483855afa5050505050565b61032e8161048b565b82525050565b600061033f82610419565b6103498185610424565b93506103598185602086016104c7565b61036281610529565b840191505092915050565b610376816104bd565b82525050565b600060208201905081810360008301526103968184610334565b905092915050565b600060408201905081810360008301526103b88185610334565b90506103c76020830184610325565b9392505050565b600060408201905081810360008301526103e88185610334565b90506103f7602083018461036d565b9392505050565b6000602082019050610413600083018461036d565b92915050565b600081519050919050565b600082825260208201905092915050565b6000610440826104bd565b915061044b836104bd565b9250827fffffffffffffffffffffffffffffffffffffffffffffffffffffffffffffffff038211156104805761047f6104fa565b5b828201905092915050565b60006104968261049d565b9050919050565b600073ffffffffffffffffffffffffffffffffffffffff82169050919050565b6000819050919050565b60005b838110156104e55780820151818401526020810190506104ca565b838111156104f4576000848401525b50505050565b7f4e487b7100000000000000000000000000000000000000000000000000000000600052601160045260246000fd5b6000601f19601f830116905091905056fe5765206861766520256420746f74616c20657468657220646f6e6174696f6e7321a2646970667358221220de6b41cd711b4a2ecb5e8e062b197360136adda9d8f6f7fe0d2720cadc0a697364736f6c63430008040033",
  "linkReferences": {},
  "deployedLinkReferences": {}
}